S0150000436C6F636B2050726F6A6563742E737265632C
S11300000C9485000C948F0B0C94A2000C94A20009
S11300100C94A2000C94A2000C94A2000C94A200D4
S11300200C94A2000C94A2000C94540A0C94A20008
S11300300C94A2000C94A2000C94A2000C94A200B4
S11300400C94A2000C94A2000C94A2000C94A200A4
S11300500C94A200036EDB363D9A9999993DABAAA4
S1130060AA2A3E000000803F084AD73B3BCE016EDF
S113007084BCBFFDC12F3D6C74319ABD56833DDAFB
S11300803D00C77F11BED9E4BB4C3E916BAAAABE0A
S1130090000000803F072C7AA5BA6CC590DA3B9328
S11300A065FC8BBC53F810FD3C5692834DBD879D77
S11300B03AB63DCBC9BF5BBE73DA0FC93F05A84C46
S11300C0CDB2D44EB93836A9020C50B991868808FD
S11300D03CA6AAAA2ABE000000803F0664EC1B3C92
S11300E004BC163E3BE5B93CC93C37C29E5A3D664A
S11300F00498083EEA69AAAA3E000000803F6364AF
S1130100696E6F70737578585B0011241FBECFE55C
S1130110D8E0DEBFCDBF10E0A0E6B0E0E6EEF5E348
S113012002C005900D92AC3CB107D9F721E0ACECCC
S1130130B0E001C01D92AD31B207E1F70E94C50BDA
S11301400C94F11A0C9400008EBB9FBB6DBBE29A19
S1130150E19AE199FECF08958EBB9FBBE09A8DB3DF
S113016008958F929F92AF92BF92CF92DF92EF92B7
S1130170FF92CF93DF93FC01C62FD42F633010F48A
S11301803197C45F9F013695279536952795ABE740
S1130190B4E10E944117969587956C01E12CF12CEE
S11301A0BF0164597D4E80E090E00E94C31320E0BB
S11301B030EA46EB53E40E9401160E948D134B0172
S11301C05C016C2F70E06F5F7F4F072E000C880B73
S11301D0990B0E94C51321E03DEC44EF51E40E94C9
S11301E001160E948D13DC01CB01880D991DAA1DF7
S11301F0BB1D4C015D018D0E911CA11CB11C82E044
S113020090E0A0E0B0E08C199D09AE09BF09F59417
S1130210E794D794C794F594E794D794C794C80EF9
S1130220D91EEA1EFB1ED501C4018C0D9D1DAE1DF9
S1130230BF1DBC01CD01645F754081099109DF9147
S1130240CF91FF90EF90DF90CF90BF90AF909F90B1
S11302508F9008952F923F924F925F926F927F9268
S11302608F929F92AF92BF92CF92DF92EF92FF92C2
S11302700F931F93CF93DF9300D000D000D0CDB75E
S1130280DEB75E834D8319016B017C0127E1C21A3D
S11302902BEBD20A2DE1E20AF108D701C601880F3F
S11302A0991FAA1FBB1FAC01BD014C0D5D1D6E1D26
S11302B07F1DDB01CA01880F991FAA1FBB1F880F6E
S11302C0991FAA1FBB1F840F951FA61FB71F880F56
S11302D0991FAA1FBB1FBC01CD016A56764D8F4FD3
S11302E09F4F27E839E240E050E00E94221729019D
S11302F03A01BA01A901440F551F661F771FDB019C
S1130300CA01880F991FAA1FBB1F880F991FAA1F14
S1130310BB1F840F951FA61FB71F840D951DA61D17
S1130320B71DBC01CD016D5F7F4F8F4F9F4F2EE1F5
S113033030E040E050E00E9422174901330FAA0840
S1130340BB08A30192012150310941095109A2E6D8
S1130350B1E00E945017860E971EA81EB91ED70141
S1130360C60188199909AA09BB09BC01CD01645EBB
S11303707F4F8F4F9F4F0E94C51320E030E04CEE1B
S113038051E40E941B130E948D13161617061806BB
S1130390190624F061E070E080E090E069837A83DC
S11303A08B839C836D3071058105910544F08CE04D
S11303B090E0A0E0B0E089839A83AB83BC83698139
S11303C07A818B819C8161507109810991090E9414
S11303D0C51320E030E04CEE51E40E9401160E9467
S11303E08D13CB01770FAA0BBB0B880E991EAA1E87
S11303F0BB1EC818D908EA08FB089FEFC91AD90A16
S1130400E90AF90A1C141D041E041F0424F0C12C5B
S1130410D12C7601C394AFE1CA16D104E104F104EE
S11304203CF00F2EFEE1CF2ED12CE12CF12CF02D3F
S1130430ED81FE81C082E981D101EC93D8014D9216
S11304405C9226960FB6F894DEBF0FBECDBFDF9147
S1130450CF911F910F91FF90EF90DF90CF90BF90BD
S1130460AF909F908F907F906F905F904F903F9050
S11304702F9008958F929F92AF92BF92CF92DF9266
S1130480EF92FF920F931F93CF93DF93822EE80195
S113049086010E94B100082C000C9908AA08BB0828
S11304A0680D791D8A1D9B1D9701AE010E942A01CA
S11304B0DF91CF911F910F91FF90EF90DF90CF903C
S11304C0BF90AF909F908F900895DC01CB01880F6F
S11304D0991FAA1FBB1F880F991FAA1FBB1F9C012E
S11304E0AD01220F331F441F551F220F331F441F1A
S11304F0551F60E072E18AE790E00E9400172150E6
S1130500310930BD29B9539A549A86E880BD0895BB
S11305108BB18CB10895823419F118F4813439F017
S113052008958334B1F1843409F44CC00895413002
S113053059F42AB381E090E002C0880F991F6A95AC
S1130540E2F7822B8ABB08952AB381E090E002C0CF
S1130550880F991F6A95E2F7809582238ABB0895D4
S1130560413059F427B381E090E002C0880F991F0D
S11305706A95E2F7822B87BB089527B381E090E068
S113058002C0880F991F6A95E2F78095822387BB82
S11305900895413059F424B381E090E002C0880FFB
S11305A0991F6A95E2F7822B84BB089524B381E0F6
S11305B090E002C0880F991F6A95E2F78095822324
S11305C084BB0895413059F421B381E090E002C026
S11305D0880F991F6A95E2F7822B81BB089521B396
S11305E081E090E002C0880F991F6A95E2F7809538
S11305F0822381BB0895823419F118F4813439F0CF
S113060008958334B1F1843409F44CC00895413021
S113061059F42BB381E090E002C0880F991F6A95CA
S1130620E2F7822B8BBB08952BB381E090E002C0EC
S1130630880F991F6A95E2F7809582238BBB0895F2
S1130640413059F428B381E090E002C0880F991F2B
S11306506A95E2F7822B88BB089528B381E090E085
S113066002C0880F991F6A95E2F78095822388BBA0
S11306700895413059F425B381E090E002C0880F19
S1130680991F6A95E2F7822B85BB089525B381E013
S113069090E002C0880F991F6A95E2F78095822343
S11306A085BB0895413059F422B381E090E002C043
S11306B0880F991F6A95E2F7822B82BB089522B3B3
S11306C081E090E002C0880F991F6A95E2F7809557
S11306D0822382BB08958234D9F018F4813431F036
S11306E04DC0833439F18434B9F148C029B381E071
S11306F090E0062E02C0880F991F0A94E2F730E0BA
S11307008223932302C0959587956A95E2F708950D
S113071026B381E090E0062E02C0880F991F0A9448
S1130720E2F730E08223932302C0959587956A957A
S1130730E2F7089523B381E090E0062E02C0880F0B
S1130740991F0A94E2F730E08223932302C095951F
S113075087956A95E2F7089520B381E090E0062E2C
S113076002C0880F991F0A94E2F730E08223932392
S113077002C0959587956A95E2F7089580E00895FB
S1130780823459F018F4813431F00895833439F007
S1130790843439F008956ABB089567BB089564BB37
S11307A0089561BB0895823459F018F4813431F00E
S11307B00895833439F0843439F008956BBB089577
S11307C068BB089565BB089562BB08959DEC899F3D
S11307D0912D112496959695969520E1929FA001CE
S11307E01124990F292F220F220F920F891B842B7A
S11307F00895982F92959F70990F292F220F220FF9
S1130800920F8F70890F08951F93CF93DF93C82F92
S1130810D62F142F0E94900580ED0E949C0580E045
S11308200E94A305812F0E94E6030E94A3058D2F39
S11308300E94E6030E94A3058C2F0E94E6030E94F7
S1130840A3050E94AA05DF91CF911F910895EF920D
S1130850FF920F931F93CF93DF93EC018B017A01E7
S11308600E94900580ED0E949C0580E00E94A305F3
S11308700E94960581ED0E949C050E94AD050E9490
S1130880F903F70180830E94AD050E94F903F80182
S113089080830E94B4050E94F90388830E94AA05FC
S11308A0DF91CF911F910F91FF90EF9008950F93D7
S11308B01F93CF93DF93082F162FD42FC22F0E949C
S11308C0900580ED0E949C0583E00E94A305802F83
S11308D00E94E6030E94A305812F0E94E6030E9462
S11308E0A3058D2F0E94E6030E94A3058C2F0E946E
S11308F0E6030E94A3050E94AA05DF91CF911F91F0
S11309000F910895CF92DF92EF92FF920F931F936E
S1130910CF93DF936C017B018A01E9010E9490056A
S113092080ED0E949C0583E00E94A3050E94960529
S113093081ED0E949C050E94AD050E94F903F60119
S113094080830E94AD050E94F903F70180830E9411
S1130950AD050E94F903F80180830E94B4050E944A
S1130960F90388830E94AA05DF91CF911F910F910B
S1130970FF90EF90DF90CF900895CF930E94900561
S113098080ED0E949C0583E00E94A3050E949605C9
S113099081ED0E949C050E94B4050E94F903C82FB2
S11309A00E94AA058C2FCF910895CF930E949005A1
S11309B080ED0E949C058EE00E94A3050E9496058E
S11309C081ED0E949C050E94B405C82F0E94AA05CF
S11309D0CD7F0E94900580ED0E949C058EE00E94D0
S11309E0A3058C2F85600E94A3050E94AA05CF91C0
S11309F00895CF930E94900580ED0E949C058FE09E
S1130A000E94A3050E94960581ED0E949C050E9408
S1130A10B405C82F0E94AA050E94900580ED0E948B
S1130A209C058FE00E94A3058C2F8E7F0E94A30556
S1130A300E94AA05CF910895CF93DF93C82FD62F94
S1130A400E94F9040E94900580ED0E949C0587E0B5
S1130A500E94A30580E00E94A3058D2F0E94E60357
S1130A608F770E94A3058C2F0E94E6038F770E9444
S1130A70A30580E80E94A3050E94AA05DF91CF91F7
S1130A800895CF930E94900580ED0E949C0581E11A
S1130A900E94A3050E94900581ED0E949C050E947E
S1130AA0AD05C82F0E94B4050E94AA058C2FCF91D2
S1130AB00895CF930E94900580ED0E949C058EE0DE
S1130AC00E94A3050E94960581ED0E949C050E9448
S1130AD0B405C82F0E94AA050E94900580ED0E94CB
S1130AE09C058EE00E94A3058C2F8E7F0E94A30597
S1130AF00E94AA05CF9108959B01AC0160E072E1C8
S1130B008AE790E00E940017DA01C9014097A10921
S1130B10B109B695A7959795879580B911B80895A9
S1130B2084EA86BF06B607FEFDCF089584EA86BF31
S1130B3006B607FEFDCF089583B984E886BF06B6DE
S1130B4007FEFDCF089583B984E886BF06B607FE85
S1130B50FDCF089584E986BF089584EC86BF06B668
S1130B6007FEFDCF83B1089584E886BF06B607FE6D
S1130B70FDCF83B1089588E083BF83B7836083BFCB
S1130B808CE78CBF89B7826089BF0895F89481E0AF
S1130B908093E7008CE390E09093E6008093E50077
S1130BA01092E4001092E30041E065E084E40E94C6
S1130BB0FB02789408951092E2001092E7001092DC
S1130BC0E6001092E5001092E4001092E300109207
S1130BD0E10040E065E084E40E94FB020E94C60557
S1130BE008958091E200882379F1F8948091E100DE
S1130BF08530A8F481E08093E7008CE390E0909343
S1130C00E6008093E50088E290E09093E40080930E
S1130C10E3008091E1008F5F8093E1000EC01092A9
S1130C20E7001092E6001092E50088EE93E09093BE
S1130C30E4008093E3001092E1004091E70065E056
S1130C4084E40E94FB0278940895CF92DF92EF929D
S1130C50FF920F931F93CF93DF9300D000D0CDB7B3
S1130C60DEB78091CF0081110AC07091D6006091E7
S1130C70D5004091D40050E04053584F1BC08091A0
S1130C80D40090E09E012F5F3F4F69012E5F3F4FDC
S1130C9079018E010C5F1F4F2091CE004091D60048
S1130CA06091D5008053984F0E943A027C816B81F9
S1130CB049815A818DEC789F212D1124922F96958C
S1130CC096959695990F392F330F330F930F791B00
S1130CD0EDEEF0E070872695269526952187689F8E
S1130CE0812D1124982F969596959695990F292FD5
S1130CF0220F220F920F691B62878695869586952F
S1130D0083879A01ADECBCEC0E9441178C011695C7
S1130D10079516950795169507959801220F331F89
S1130D20C801880F991F880F991F880F991F820F78
S1130D30931F9A01281B390B248798010E9441179D
S1130D409695879596958795969587959C01220FFC
S1130D50331F880F991F880F991F880F991F820FBF
S1130D60931F081B190B05879A013695279536950D
S1130D702795ABE7B4E10E9441178C0116950795BE
S1130D809801ADECBCEC0E94411796958795969519
S1130D908795969587959C01220F331F880F991F7D
S1130DA0880F991F880F991F820F931F081B190B17
S1130DB006879A0136952795369527953695279572
S1130DC0A5ECB0E20E944117AC01529542954F70D8
S1130DD045275F7045279A01ADECBCEC0E94411792
S1130DE09695879596958795969587959C01220F5C
S1130DF0331F880F991F880F991F880F991F820F1F
S1130E00931F481B590B47870F900F900F900F901B
S1130E10DF91CF911F910F91FF90EF90DF90CF90D2
S1130E2008950E94BD04E091DC0090E0069667E01E
S1130E3070E00E94EC16DC01BB27A054BF4F8C91DC
S1130E4090E0982F8827F0E0E953FF4F2081822B10
S1130E502091CF00211102C0806401C080620E94F1
S1130E60941108952091DA002C3020F02D3028F0D0
S1130E702C5003C0211101C02CE05091D9008DECFD
S1130E80589F312D1124932F969596959695990FE9
S1130E90492F440F440F940F591BEDEEF0E050839B
S1130EA03695369536953183289F812D1124982FB8
S1130EB0969596959695990F392F330F330F930F77
S1130EC0291B22838695869586958383E091DC0091
S1130ED0F0E0EE0FFF1FE150FF4F208151812C30D5
S1130EE020F02D3028F02C5003C0211101C02CE03B
S1130EF08DEC589F312D1124932F969596959695A8
S1130F00990F492F440F440F940F591BEDEEF0E055
S1130F1054833695369536953583289F812D112433
S1130F20982F969596959695990F392F330F330FE1
S1130F30930F291B268386958695869587830E9421
S1130F4011070E94250608957F928F929F92AF9277
S1130F50BF92CF92DF92EF92FF920F931F93CF93A2
S1130F60DF93EA01890120E030E040EC51E40E9483
S1130F706014C62ED72EE82EF92EA62EB72E982E44
S1130F80892E20E030E0A9010E941113882374F413
S1130F9020E030E040EC51E46C2D7D2D8E2D9F2D12
S1130FA00E941812A62EB72E982E892E29E838E80A
S1130FB048E05CE36A2D7B2D892D982D0E94181240
S1130FC04B015C010E9400140E948D136B017C0193
S1130FD0762E072E000C880B990B0E94C5139B01DB
S1130FE0AC01C501B4010E94171220E030E040E7D3
S1130FF052E40E9401160E948D139B016C3371050B
S11310004CF02C533109C601019668E170E00E944E
S1131010EC16782E7882F8012083DF91CF911F910E
S11310200F91FF90EF90DF90CF90BF90AF909F9083
S11310308F907F9008958F929F92AF92BF92CF929C
S1131040DF92EF92FF920F931F93CF93DF93CDB76D
S1131050DEB76E970FB6F894DEBF0FBECDBF80909B
S11310606000912C4091D60050E06091D50070E072
S11310708091D40090E09E01255F3F4F3F932F93D2
S11310806894AA24A1F8B12C0F2EF3E0CF2EF8EF28
S1131090DF2EF9EFEF2EF1E4FF2EF02D01E91FE032
S11310A020EF31E48053984F0E949B0F6B857C8521
S11310B08D859E859E012E5F3F4FAE014F5F5F4F32
S11310C00E94A4076F85788989899A899E012C5F7B
S11310D03F4FAE014D5F5F4F0E94A4076B897C892F
S11310E08D899E899E012A5F3F4FAE014B5F5F4F02
S11310F00E94A4076F89788D898D9A8D9E01285F3F
S11311003F4FAE01495F5F4F0E94A4076B8D7C8DFA
S11311108D8D9E8D9E01265F3F4FAE01475F5F4FD1
S11311200E94A407EFEFF0E0898180838A818183A4
S11311308B8182838C8183838D8184838E8185835B
S11311408F81868388858783898580878A8581873F
S11311500F900F906E960FB6F894DEBF0FBECDBF02
S1131160DF91CF911F910F91FF90EF90DF90CF907F
S1131170BF90AF909F908F90089580E090E00E9480
S113118094118FEF9FEF0E94D511089584B383705B
S113119084BB85B3837085BBD7988F98089584B337
S11311A08C6F84BBD79A8F9ADF9A979A0895CF93BE
S11311B0DF9300D000D01F92CDB7DEB70E94C605E2
S11311C0E9E0F1E001900020E9F73197E950F140BE
S11311D0FF273197DF01A75FBE4F8C918A3011F052
S11311E08D3019F4E75FFE4F108242E050E06DE667
S11311F070E089E091E00E947817892BF9F4CE0120
S113120001969F938F9302969F938F9380E790E02C
S11312109F938F938BE091E09F938F930E94861707
S11312200FB6F894DEBF0FBECDBF029709F02BC1F5
S113123040E069818B810E94040425C142E050E0B2
S11312406CE770E089E091E00E947817892B39F50A
S1131250CE0101969F938F9302969F938F9301964D
S11312609F938F9301969F938F938FE790E09F9323
S11312708F938BE091E09F938F930E9486170FB614
S1131280F894DEBF0FBECDBF049709F0FCC02981DE
S1131290205D4B816C818D810E945704F4C042E033
S11312A050E063E970E089E091E00E947817892BAF
S11312B051F5CE0101969F938F9302969F938F933E
S11312C080E790E09F938F938BE091E09F938F93BF
S11312D00E9486170FB6F894DEBF0FBECDBF0297EB
S11312E009F0D1C069818B810E941C050E94D5043C
S11312F06B8184E090E00E94A400698185E090E025
S11313000E94A400C0C066E970E089E091E00E94F8
S11313106F17892B79F40E9459050E94F9046FEF25
S113132084E090E00E94A4006FEF85E090E00E94CA
S1131330A400A9C068E970E089E091E00E946F17F9
S1131340892B19F40E94DB059EC06AE970E089E0EC
S113135091E00E946F17892B61F481E08093DB0098
S11313601092DD001092DE001092DF001092E00077
S11313708AC06CE970E089E091E00E946F17892BC4
S113138041F41092DB0081E0809361000E94CF0859
S11313907AC06EE970E089E091E00E946F17892BB2
S11313A049F481E08093CE0061E082E090E00E9405
S11313B0A40069C061EA70E089E091E00E946F17BF
S11313C0892B49F482E08093CE0062E082E090E0D1
S11313D00E94A40058C064EA70E089E091E00E9491
S11313E06F17892B41F41092CE0060E082E090E008
S11313F00E94A40048C066EA70E089E091E00E947F
S11314006F17892B49F48FEF8093CE006FEF82E042
S113141090E00E94A40037C069EA70E089E091E09E
S11314200E946F17892B49F48EEF8093CE006EEFE4
S113143082E090E00E94A40026C06CEA70E089E09B
S113144091E00E946F17892B61F481E08093600022
S11314506091600083E090E00E94A4000E941B0859
S113146012C06EEA70E089E091E00E946F17892B48
S113147051F4109260006091600083E090E00E945B
S1131480A4000E941B0884E1E9E0F1E0DF011D9261
S11314908A95E9F71092D2000F900F900F900F9059
S11314A00F90DF91CF9108951F920F920FB60F9274
S11314B011242F933F934F935F936F937F938F9355
S11314C09F93AF93BF93EF93FF9380916100882321
S11314D041F1E091EC00F0E0E055FF4F81E090E055
S11314E0008002C0880F991F0A94E2F780959095B6
S11314F00E94D511E091EC00F0E0E351FF4F6081D0
S113150082E40E9414118091EC0090E001968F70A7
S11315109078992324F40197806F9F6F01968093AC
S1131520EC008091EA009091EB0001969093EB001F
S11315308093EA008091E8009091E90001969093ED
S1131540E9008093E8008091DB008823B1F1839B5C
S113155012C01092DD001092DE001092DF00109293
S1131560E00080916100811128C081E080936100D6
S11315700E94CF0822C0809161008823F1F08091FD
S1131580DD009091DE00A091DF00B091E0000196B3
S1131590A11DB11D8093DD009093DE00A093DF00B8
S11315A0B093E00080369A4EA105B10530F0109258
S11315B061000E94BD080E94C60841E067E081E422
S11315C00E94FB0241E067E084E40E94FB028091F8
S11315D0D0009091D100892B81F48091FD009091ED
S11315E0FE006AE070E00E94EC160E945D1140E08B
S11315F067E084E40E94FB0210C08091FD0090919A
S1131600FE006AE070E00E94EC16862F0E945D11D5
S113161040E067E081E40E94FB028091D000909159
S1131620D10021E082279093D1008093D0005F9B6A
S113163019C00E9488028A3049F4E091D200F0E097
S1131640E75FFE4F10820E94D7080CC0E091D200E1
S1131650E33140F491E09E0F9093D200F0E0E75F15
S1131660FE4F80838091E5009091E600892B31F153
S11316708091CC009091CD0001969093CD00809301
S1131680CC002091E5003091E60082179307B0F179
S11316901092CD001092CC001092E6001092E5005A
S11316A081E090E09093E4008093E3001092E700DF
S11316B040E065E084E40E94FB0220C08091E300E6
S11316C09091E400892BD1F08091CC009091CD00D1
S11316D001969093CD008093CC002091E30030914B
S11316E0E4008217930750F01092CD001092CC00C2
S11316F01092E4001092E3000E94F105FF91EF9133
S1131700BF91AF919F918F917F916F915F914F9115
S11317103F912F910F900FBE0F901F9018951F921D
S11317200F920FB60F9211242F933F934F935F9311
S11317306F937F938F939F93AF93BF93EF93FF9395
S113174081E08093E2001092E1000E94F105809113
S1131750DB00882349F080916100811105C081E09C
S1131760809361000E94CF08FF91EF91BF91AF91E8
S11317709F918F917F916F915F914F913F912F91A5
S11317800F900FBE0F901F90189560EA76E881E0E5
S113179090E00E947C0560E875E280E090E00E94A1
S11317A0650282E40E9410110E9439110E94841182
S11317B00E94C5110E94BB0540E063E084E40E94DE
S11317C08B0241E065E084E40E948B0240E062E029
S11317D084E40E948B0241E067E084E40E948B026F
S11317E041E067E081E40E948B0241E066E084E42A
S11317F00E948B0285B7826085BF85B78E7F85BFC7
S11318008BB780648BBF0E94CF08789482E090E00D
S11318100E94AC008093CE0083E090E00E94AC0074
S11318208093600084E090E00E94AC00C82F85E0C3
S113183090E00E94AC00CF3F49F08F3F39F0682F11
S11318408C2F0E941C050E94D50402C00E945905D9
S11318500E94F90448ED50E069ED70E08AED90E0F3
S11318600E94270424ED30E045ED50E066ED70E081
S113187087ED90E00E9482048091D6008093D3008B
S11318800E941B080E9432070E941107C5E0D0E0A5
S11318901FEF8091EA009091EB00883E934008F49A
S11318A077C01092EB001092EA0048ED50E069ED29
S11318B070E08AED90E00E94270424ED30E045EDCD
S11318C050E066ED70E087ED90E00E9482040E9493
S11318D032078091D6009091D300891721F080932C
S11318E0D3000E941B083091DA004091D900EFEF39
S11318F0F0E080E090E02081231321C021812413B3
S11319001EC020916200022E000C330B28173907E9
S1131910D9F08093620041E066E084E40E94FB0217
S11319208FEF91EE24E0815090402040E1F700C019
S1131930000040E066E084E40E94FB0205C00196DA
S1131940329685309105B9F6809162008F3FB9F0E7
S1131950E0916200EE0FFF0BE150FF4F9081809108
S1131960DA0098130AC0E0916200EE0FFF0BE15019
S1131970FF4F91818091D9009813109362000E94C7
S11319804105082E000C990B9093FE008093FD00F6
S11319908091E8009091E90088389341B8F0109262
S11319A0E9001092E8008091DC0090E00196BE010D
S11319B00E94EC168093DC000E9432070E941107FB
S11319C09091CF0081E089278093CF0064E084E484
S11319D00E946B03813009F05CCF1092E2001092F8
S11319E0E7001092E6001092E5001092E4001092D5
S11319F0E3001092E10040E065E084E40E94FB0211
S1131A0048CF0F931F93CF93DF9320E030E044EB54
S1131A1053E40E946014062F172FD82FC92F20E0FB
S1131A2030E0A9010E941113882374F420E030E00F
S1131A3044EB53E4602F712F8D2F9C2F0E941812BA
S1131A40062F172FD82FC92F602F712F8D2F9C2F62
S1131A50DF91CF911F910F9108950F931F93CF930F
S1131A60DF9320E030E040EC51E40E946014062F44
S1131A70172FD82FC92F20E030E0A9010E9411139D
S1131A80882374F420E030E040EC51E4602F712F9F
S1131A908D2F9C2F0E941812062F172FD82FC92F75
S1131AA0602F712F8D2F9C2FDF91CF911F910F915C
S1131AB008954F925F926F927F928F929F92AF920E
S1131AC0BF92EF92FF920F931F93CF93DF9300D0B7
S1131AD000D0CDB7DEB78C017A8369837A01633095
S1131AE0710534F401501109CB010C969A83898352
S1131AF0B80164597D4E072E000C880B990B0E9487
S1131B00C51320E030EA46EB53E40E9401160E941C
S1131B1000144B015C0169817A816F5F7F4F072E4E
S1131B20000C880B990B0E94C51321E03DEC44EF97
S1131B3051E40E9401160E9400142B013C01C801CB
S1131B4064E670E00E94EC1622E030E0261B370BBE
S1131B50C80160E971E00E94EC16620F731F072E42
S1131B60000C880B990B0E94C51369837A838B83BD
S1131B709C83A3019201C501B4010E9418124B0178
S1131B805C01B701FF0C880B990B0E94C5139B01E4
S1131B90AC01C501B4010E9418129B01AC0169811A
S1131BA07A818B819C810E94181220E030E94EEBEF
S1131BB054E40E9417120F900F900F900F90DF9132
S1131BC0CF911F910F91FF90EF90BF90AF909F9096
S1131BD08F907F906F905F904F9008954F925F9297
S1131BE06F927F928F929F92AF92BF92CF92DF9229
S1131BF0EF92FF920F931F93CF93DF93CDB7DEB78E
S1131C002A970FB6F894DEBF0FBECDBF5A87498717
S1131C10890124E631EA45E15AE40E9417126B0176
S1131C207C012DE430E54CE75FE30E94011626EBCE
S1131C3033EC42EB53E40E9418120E94010D4B0155
S1131C405C0123E633E54CE75FE3C701B6010E947C
S1131C50011621EC3AE34CE853E40E9418120E9466
S1131C60010D69837A838B839C8325E33AEF4EE8E5
S1131C705CE3C501B4010E9401160E946E162B019B
S1131C803C01A5019401C501B4010E94181225E389
S1131C903AEF4EE85CE30E9401160E946E164B0177
S1131CA05C0128EB3EE145EF5FE3C301B2010E9412
S1131CB0011629813A814B815C810E9418122B0103
S1131CC03C012AE037ED43EA5CE3C501B4010E941C
S1131CD001169B01AC01C301B2010E9418120E94BB
S1131CE0010D25E33AEF4EE85CE30E9401164B0137
S1131CF05C010E9416136D837E838F83988726E090
S1131D0036E441EC54E3C701B6010E9401169B017D
S1131D10AC0162E173E88BEB91E40E94171225E3B6
S1131D203AEF4EE85CE30E9401166B017C010E94CD
S1131D3016132B013C01C501B4010E946E164B0120
S1131D405C019B01AC01C301B2010E9401162D810B
S1131D503E814F8158850E94B21220EE3EE245E654
S1131D6052E40E94011620E030E040E751E40E9472
S1131D701B130E942D0D2B013C01C701B6010E94CB
S1131D806E169B01AC01C501B4010E9401160E94AC
S1131D90841220EE3EE245E652E40E940116E985F3
S1131DA0FA85608371838283938320E030E040E787
S1131DB051E469817A818B819C810E941B13A30168
S1131DC092010E941712F8016083718382839383C6
S1131DD02A960FB6F894DEBF0FBECDBFDF91CF9128
S1131DE01F910F91FF90EF90DF90CF90BF90AF9035
S1131DF09F908F907F906F905F904F9008954F9237
S1131E005F926F927F928F929F92AF92BF92CF9286
S1131E10DF92EF92FF920F931F93CF93DF93CDB78F
S1131E20DEB728970FB6F894DEBF0FBECDBF4B01C7
S1131E305C0129833A834B835C83C801B7019058C2
S1131E4025E33AEF4EE85CE30E9401160E946E1609
S1131E506D837E838F83988725E33AEF4EE85CE3B6
S1131E60C501B4010E9401164B015C010E946E166B
S1131E702B013C0125E33AEF4EE85CE369817A816A
S1131E808B819C810E9401166B017C010E946E165D
S1131E9069837A838B839C83C501B4010E941613E2
S1131EA04B015C01C701B6010E9416136B017C0152
S1131EB029813A814B815C81C301B2010E940116E0
S1131EC09B01AC016D817E818F8198850E941712E0
S1131ED02B013C01A7019601C501B4010E94011622
S1131EE09B01AC01C301B2010E941B130E940612A4
S1131EF020EE3EE245E652E40E94011620E030E086
S1131F0040E751E40E941B1328960FB6F894DEBFF5
S1131F100FBECDBFDF91CF911F910F91FF90EF9036
S1131F20DF90CF90BF90AF909F908F907F906F90F5
S1131F305F904F9008952F923F924F925F926F92CD
S1131F407F928F929F92AF92BF92CF92DF92EF9245
S1131F50FF920F931F93CF93DF93CDB7DEB7A09774
S1131F600FB6F894DEBF0FBECDBF0D871E872F8737
S1131F70388B2DA83EA80E94590D9E012B5F3F4F20
S1131F80AE014F5F5F4F0E94EE0DB501645F7F4F5E
S1131F90680D791D072E000C880B990B0E94C51340
S1131FA04B015C0120E030E040E751E4C701B60199
S1131FB00E941B139B01AC01C501B4010E941712BE
S1131FC02D813E814F8158850E9417120E942D0D4C
S1131FD02B013C0189809A80AB80BC80A5019401CF
S1131FE06D857E858F8598890E94171225E33AEFC7
S1131FF04EE85CE30E9401160E94C01620E030E027
S113200040E85FE30E9418129B01AC0160E070E0BD
S113201080E89FE30E941B130E94E21220EE3EE23E
S113202045E652E40E94011625E33AEF4EE85CE3EC
S11320300E9401160E946E16698B7A8B8B8B9C8B87
S113204025E33AEF4EE85CE3C501B4010E940116B2
S113205069877A878B879C870E946E166D8B7E8B2F
S11320608F8B988F25E33AEF4EE85CE36D857E8590
S11320708F8598890E9401166B017C010E946E165F
S1132080698F7A8F8B8F9C8F69857A858B859C85E8
S11320900E94161369877A878B879C87C701B601CC
S11320A00E9416136D8F7E8F8F8F98A3298D3A8D82
S11320B04B8D5C8D6D897E898F89988D0E94011668
S11320C09B01AC0169897A898B899C890E941712CA
S11320D06B017C012D8D3E8D4F8D58A169857A85CC
S11320E08B859C850E9401169B01AC01C701B6013A
S11320F00E941B1320E030E040E85FEB0E941714BD
S113210020E030E040E85FE30E9436140E940612AB
S113211069877A878B879C87E12CF12C0CE911E481
S1132120A50194016D857E858F8598890E94FF0E97
S11321309B01AC01C301B2010E9417120E942D0D34
S1132140F101608371838283938344825582668222
S1132150778220EE3EE245E652E469857A858B85F6
S11321609C850E94011620E030E040E751E40E9483
S11321701B13A30192010E9418120E942D0DF1015C
S113218060877187828793871DE7E12E1FE3F12E15
S113219005E5A50194016D857E858F8598890E944A
S11321A0FF0E9B01AC01C301B2010E9418120E94F0
S11321B02D0DF1016487758786879787E12CF12CB3
S11321C00CE811E4A50194016D857E858F859889BD
S11321D00E94FF0E9B01AC01C301B2010E941812C0
S11321E00E942D0DF101608B718B828B938BA096D5
S11321F00FB6F894DEBF0FBECDBFDF91CF911F9114
S11322000F91FF90EF90DF90CF90BF90AF909F9091
S11322108F907F906F905F904F903F902F90089594
S11322206FEF0E94C0030895CF93DF93CDB7DEB75D
S11322302A970FB6F894DEBF0FBECDBF9AE0E3E64F
S1132240F0E0DE01119601900D929A95E1F7E1E03C
S1132250F0E0EC0FFD1FE60FF11D60810E94D30337
S11322602A960FB6F894DEBF0FBECDBFDF91CF9193
S1132270089541E060E081E40E948B0241E061E066
S113228081E40E948B0241E062E081E40E948B02BF
S113229041E063E081E40E948B0241E064E081E478
S11322A00E948B0241E065E081E40E948B0241E0E0
S11322B066E081E40E948B020895CF93DF93CDB74B
S11322C0DEB72A970FB6F894DEBF0FBECDBF9AE0F3
S11322D0E3E6F0E0DE01119601900D929A95E1F7A4
S11322E08A3048F42BB32078FE01E80FF11D918168
S11322F0822F892B8BBB2A960FB6F894DEBF0FBEB4
S1132300CDBFDF91CF91089541E065E083E40E9461
S11323108B0241E066E083E40E948B0241E067E0C7
S113232083E40E948B0208950F931F93CF93DF934E
S11323308C01CFE0D0E0A8010C2E02C05695479541
S11323400A94E2F7417065E083E40E94FB0241E0F5
S113235066E083E40E94FB02000040E066E083E460
S11323600E94FB020000219730F741E067E083E41C
S11323700E94FB02000040E067E083E40E94FB024D
S1132380DF91CF911F910F91089541E063E083E4C1
S11323900E948B0241E062E083E40E948B0241E0F0
S11323A064E083E40E948B0208950F931F93CF93FC
S11323B0DF938C01CFE0D0E0A8010C2E02C056952B
S11323C047950A94E2F7417063E083E40E94FB02BC
S11323D041E062E083E40E94FB02000040E062E02E
S11323E083E40E94FB020000219730F741E064E09F
S11323F083E40E94FB02000040E064E083E40E9466
S1132400FB02DF91CF911F910F9108959F939F77C6
S11324100E94A9140F90002042F49058A2EA2AEDD9
S11324203FE049E450E40E942F120C949315505855
S1132430BB27AA270E942F120C9493150E945A15A9
S113244038F00E94611520F039F49F3F19F426F406
S11324500C941C150EF4E095E7FB0C94ED14E92F95
S11324600E94B81558F3BA176207730784079507D3
S113247020F079F4A6F50C94F2150EF4E0950B2EE9
S1132480BA2FA02D0B01B90190010C01CA01A001C2
S11324901124FF27591B99F0593F50F4503E68F11D
S11324A01A16F040A22F232F342F4427585FF3CF5E
S11324B0469537952795A795F0405395C9F77EF42F
S11324C01F16BA0B620B730B840BBAF09150A1F078
S11324D0FF0FBB1F661F771F881FC2F70EC0BA0FFE
S11324E0621F731F841F48F4879577956795B79586
S11324F0F7959E3F08F0B0CF9395880F08F0992781
S1132500EE0F9795879508959F939F77EEE389370C
S11325109E0728F4E4E5F0E00E9446150CC00E94F2
S1132520A9149058A2EA2AED3FE049EC5FE30E9427
S11325302F120E9493150F9007FC905808950E9443
S11325405A1560F080E891E009F49EEF0E9461154D
S113255028F040E851E071F45EEF0CC00C941C15B7
S11325600C94F215E92FE0780E94B81540F3092E77
S1132570052AB1F3261737074807590738F00E2EF6
S113258007F8E02569F0E025E0640AC0EF6307F886
S1132590009407FADB01B9019D01DC01CA01AD0118
S11325A0EF930E9432130E9493150E94E2125F91EE
S11325B0552339F02BED3FE049E450FD49EC0C94F0
S11325C018120895DF93DD27B92FBF7740E85FE342
S11325D01616170648075B0718F4D92F0E94F91539
S11325E09F938F937F936F930E94BC16E8E6F0E06D
S11325F00E941F150E9493152F913F914F915F9157
S11326000E941416DD2351F09058A2EA2AED3FE00F
S113261049EC5FE3D0785D270E942F12DF910C9480
S113262093150E94C91408F481E008950E946A1564
S1132630E3950C94A4150E942F130C9493150E94F7
S1132640611558F00E945A1540F029F45F3F29F0B3
S11326500C94ED1451110C94F3150C941C150E9458
S1132660B81568F39923B1F3552391F3951B550BD2
S1132670BB27AA2762177307840738F09F5F5F4F51
S1132680220F331F441FAA1FA9F335D00E2E3AF090
S1132690E0E832D091505040E695001CCAF72BD0A8
S11326A0FE2F29D0660F771F881FBB1F26173707F9
S11326B04807AB07B0E809F0BB0B802DBF01FF272B
S11326C093585F4F3AF09E3F510578F00C94ED1407
S11326D00C94F3155F3FE4F3983ED4F38695779515
S11326E06795B795F7959F5FC9F7880F911D9695E4
S11326F0879597F90895E1E0660F771F881FBB1F40
S1132700621773078407BA0720F0621B730B840BEC
S1132710BA0BEE1F88F7E09508950E94941368940D
S1132720B1110C94F31508950E94C01588F09F57B9
S113273098F0B92F9927B751B0F0E1F0660F771FE1
S1132740881F991F1AF0BA95C9F714C0B13091F0D7
S11327500E94F215B1E008950C94F215672F782FBA
S11327608827B85F39F0B93FCCF38695779567959C
S1132770B395D9F73EF490958095709561957F4F08
S11327808F4F9F4F0895E89409C097FB3EF49095AE
S11327908095709561957F4F8F4F9F4F9923A9F036
S11327A0F92F96E9BB279395F695879577956795C5
S11327B0B795F111F8CFFAF4BB0F11F460FF1BC009
S11327C06F5F7F4F8F4F9F4F16C0882311F096E99C
S11327D011C0772321F09EE8872F762F05C066234A
S11327E071F096E8862F70E060E02AF09A95660F03
S11327F0771F881FDAF7880F9695879597F90895BC
S11328000E94DA1590F09F3748F4911116F00C9459
S1132810F31560E070E080E89FEB089526F41B1642
S1132820611D711D811D0C94F3140C940E15990FE8
S1132830BB0B550FAA0BE0E8FEEF16161706E807C8
S1132840F90770F012161306E407F50760F0BA17DB
S11328503CF049F46217730784079507A7951BF4A6
S1132860B901CA01BA2FB69597950895990FBB0B74
S1132870550FAA0BE0E8FEEF16161706E807F9074E
S113288070F012161306E407F50760F0BA1754F057
S113289031F42617370748075907A7951BF4B901E0
S11328A0CA01BA2FB695979508950E945A1520F03B
S11328B019F00E94611550F40C941C150C94F31536
S11328C0E92F0E94B81588F35523B1F3E7FB62178B
S11328D0730784079507A8F189F3E92FFF27882355
S11328E02AF03197660F771F881FDAF7952F55273F
S11328F0442332F091505040220F331F441FD2F72B
S1132900BB27E91BF50B621B730B840BB109B1F2F6
S113291022F4620F731F841FB11D31972AF0660FD2
S1132920771F881FBB1FEFCF9150504062F041F0DA
S1132930882332F0660F771F881F91505040C1F7EB
S113294093950C940E158695779567959F5FD9F7A7
S1132950F7CFDF93CF931F930F938B01EC01E5E93E
S1132960F0E00E941F150E9493159801AE018B019F
S1132970EC0160E070E080E89FE30E9417120E947F
S11329807C169801AE010F911F91CF91DF910C94A9
S11329901416990F0008550FAA0BE0E8FEEF16165F
S11329A01706E807F907C0F012161306E407F5073F
S11329B098F0621B730B840B950B39F40A2661F0B3
S11329C0232B242B252B21F408950A2609F4A14056
S11329D0A6958FEF811D811D089597F99F6780E863
S11329E070E060E00895882371F4772321F0985013
S11329F0872B762F07C0662311F499270DC09051B9
S1132A00862B70E060E02AF09A95660F771F881F86
S1132A10DAF7880F9695879597F908959F3F31F0D7
S1132A20915020F4879577956795B795880F911DF8
S1132A309695879597F908959FEF80EC0895DF9315
S1132A40CF931F930F93FF92EF92DF927B018C0140
S1132A50689406C0DA2EEF010E941416FE01E89471
S1132A60A5912591359145915591A6F3EF010E94C9
S1132A702F12FE019701A801DA9469F7DF90EF9015
S1132A80FF900F911F91CF91DF9108959F938F93A2
S1132A907F936F93FF93EF939B01AC010E94011608
S1132AA0EF91FF910E941F152F913F914F915F91DC
S1132AB00C94011600240A94161617061806090623
S1132AC0089500240A9412161306140605060895A0
S1132AD00C941C150E94C015D8F3E894E0E0BB27C1
S1132AE09F57F0F02AED3FE049EC06C0EE0FBB0F14
S1132AF0661F771F881F28F0B23A6207730784079E
S1132B0028F0B25A620B730B840BE3959A9572F713
S1132B10803830F49A95BB0F661F771F881FD2F751
S1132B2090480C941015092E0394000C11F488237A
S1132B3052F0BB0F40F4BF2B11F460FF04C06F5F71
S1132B407F4F8F4F9F4F0895EF93E0FF07C0A2EA96
S1132B502AED3FE049EC5FEB0E942F120E9493158F
S1132B600F90039401FC9058EDEBF0E00C944615A3
S1132B7057FD9058440F551F59F05F3F71F047952A
S1132B80880F97FB991F61F09F3F79F0879508950F
S1132B90121613061406551FF2CF4695F1DF08C02E
S1132BA0161617061806991FF1CF8695710561054B
S1132BB0089408950E94C015A0F0BEE7B91788F4E0
S1132BC0BB279F3860F41616B11D672F782F88270E
S1132BD0985FF7CF869577956795B11D939596394C
S1132BE0C8F30895E894BB2766277727CB0197F9A4
S1132BF008959B01AC0160E070E080E89FE30C94D1
S1132C001B130E9414160C9493150E945A1538F045
S1132C100E94611520F0952311F00C94ED140C948E
S1132C201C1511240C94F3150E94B81570F3959F8C
S1132C30C1F3950F50E0551F629FF001729FBB27AF
S1132C40F00DB11D639FAA27F00DB11DAA1F649F4B
S1132C506627B00DA11D661F829F2227B00DA11DFE
S1132C60621F739FB00DA11D621F839FA00D611D84
S1132C70221F749F3327A00D611D231F849F600DA5
S1132C80211D822F762F6A2F11249F5750409AF0CE
S1132C90F1F088234AF0EE0FFF1FBB1F661F771F5A
S1132CA0881F91505040A9F79E3F510580F00C9425
S1132CB0ED140C94F3155F3FE4F3983ED4F386953A
S1132CC077956795B795F795E7959F5FC1F7FE2BC5
S1132CD0880F911D9695879597F908959F930E9463
S1132CE06A150F9007FCEE5F0C94A41519F416F402
S1132CF00C941C150C940E150E94C015B8F399235E
S1132D00C9F3B6F39F57550B87FF0E94E5160024BD
S1132D10A0E640EA900180585695979528F4805C87
S1132D20660F771F881F20F026173707480730F4EF
S1132D30621B730B840B202931294A2BA695179407
S1132D400794202531254A2758F7660F771F881FD7
S1132D5020F026173707480730F4620B730B840BF7
S1132D60200D311D411DA09581F7B901842F915883
S1132D70880F9695879508959B01AC010C940116D4
S1132D80DF93D92F0E946A15E695D7952AED3FE087
S1132D9049E45FE3B33A6207730784079507D7955D
S1132DA03AF0A2EA49EC90680E942F120E9493150F
S1132DB0EBEDF0E00E944615DD0F13F00E94F915CB
S1132DC0DD0F0BF49058DF91089591505040660F39
S1132DD0771F881FD2F7089597FB072E16F40094E7
S1132DE007D077FD09D00E945B1707FC05D03EF49D
S1132DF0909581959F4F0895709561957F4F0895A3
S1132E00A1E21A2EAA1BBB1BFD010DC0AA1FBB1FEA
S1132E10EE1FFF1FA217B307E407F50720F0A21B5C
S1132E20B30BE40BF50B661F771F881F991F1A94C9
S1132E3069F760957095809590959B01AC01BD01F3
S1132E40CF010895052E97FB1EF400940E943917B4
S1132E5057FD07D00E94001707FC03D04EF40C94D2
S1132E60391750954095309521953F4F4F4F5F4FFF
S1132E70089590958095709561957F4F8F4F9F4FE2
S1132E800895A29FB001B39FC001A39F700D811D3F
S1132E901124911DB29F700D811D1124911D08955F
S1132EA00E944117A59F900DB49F900DA49F800D83
S1132EB0911D11240895AA1BBB1B51E107C0AA1F31
S1132EC0BB1FA617B70710F0A61BB70B881F991FC7
S1132ED05A95A9F780959095BC01CD010895FB0101
S1132EE0DC018D91019080190110D9F3990B08959B
S1132EF0FB01DC014150504030F08D91019080196C
S1132F0019F40020B9F7881B990B0895AEE0B0E0DE
S1132F10ECE8F7E10C94CA1A85E08C838B899C89D0
S1132F209A838983AE01495E5F4F6D897E89CE01A4
S1132F3001960E943B192E96E2E00C94E61A20FDBD
S1132F4009C0FC0123FD05C022FF02C07383628314
S1132F5051834083089544FD17C046FD17C0AB015B
S1132F60BC01DA01FB01AA0FBB1FEE1FFF1F109467
S1132F70D1F74A0F5B1F6E1F7F1FCB01BA01660F8B
S1132F80771F881F991F09C033E001C034E0660F22
S1132F90771F881F991F3150D1F7620F711D811D52
S1132FA0911D08950F931F93CF93DF938C01C80154
S1132FB00E94601AEC0197FD08C00E944C1A892BEC
S1132FC0B1F7B801CE010E949E1ACE01DF91CF91D4
S1132FD01F910F9108958F929F92AF92BF92EF929B
S1132FE0FF920F931F93CF93DF938C01D62F7A0117
S1132FF0B22E0E94601A9C0133272B32310531F026
S11330002D32310561F48B2D8068B82ED15011F426
S113301080E068C0C8010E94601A97FDF9CFCB2DEB
S1133020CD7F2B2D207309F58033F9F4AA24AA94BB
S1133030AD0E09F443C0C8010E94601A97FD3EC05A
S11330409C012F7D33272835310549F4C264D250C1
S1133050A9F1C8010E94601A97FF07C02FC0B6FEED
S113306002C0C26001C0C261DA2D812C912C5401CE
S113307020ED280F283080F0C4FF04C0B8010E945E
S11330809E1A19C02A3040F0C6FFF8CF2F7D3FEEBC
S1133090320F363098F727504C2FC501B4010E94E7
S11330A0AB174B015C01C260D15059F0C8010E94BA
S11330B0601A97FFDDCFC1FD04C0AACF812C912CEB
S11330C05401C7FF08C0B094A09490948094811CCC
S11330D0911CA11CB11C2C2FB501A401C7010E9495
S11330E09F1781E0DF91CF911F910F91FF90EF9097
S11330F0BF90AF909F908F900895A0E2B0E0E3E876
S1133100F8E10C94BD1A5C01962E7A01F9018E0146
S11331100F5F1F4F680180E2D8011D928A95E9F77D
S1133120D50113968C9080E090E0612C712C30E0F6
S113313061E070E083FC259183FE21918F01522E82
S1133140211103C080E090E092C02E3511F4009765
S113315051F1432F50E0481759073CF42D3559F1EC
S11331602D3219F4772009F103C0772009F46AC0DD
S1133170452D469546954695D601A40FB11D452D7E
S113318047708B0102C0000F111F4A95E2F7A80196
S11331905C91452B4C93651459F0561410F45394D8
S11331A0E7CF5A94E5CF31E004C07724739401C08B
S11331B0712C0196BFCF772019F08E8180628E83A7
S11331C0311103C08824839417C0F6019E012F5D3A
S11331D03F4F8081809581932E173F07D1F7F2CF1F
S11331E0E114F10429F0D7018C93F70131967F01A2
S11331F09A94812C9920F9F0C5010E94601A97FDD8
S113320018C0FC01FF2723E0F595E7952A95E1F71F
S1133210EC0DFD1D208130E0AC014770552702C044
S1133220359527954A95E2F720FDDACFB5010E943E
S11332309E1A811087CFE114F10411F0D7011C927A
S1133240C80115C0422F469546954695D601A40F50
S1133250B11D422F47708B0102C0000F111F4A9508
S1133260E2F7A8015C91452B4C93622EA2CFA09665
S1133270EFE00C94D91AA0E0B0E0E1E4F9E10C9499
S1133280BD1A6C01EB015A01FC0117821682512C04
S1133290F601E380FE01E3FC8591E3FE8191182FA2
S11332A0EF01882309F4EEC090E00E944C1A892BA8
S11332B021F0C6010E94D217EBCF153241F4FE0172
S11332C0E3FC1591E3FE1191EF01153281F4C6017F
S11332D00E94601A97FDD4C0412F50E09C0133270F
S11332E024173507A9F2B6010E949E1ACBC01A32E0
S11332F039F4E3FC1591E3FE1191EF0101E001C003
S113330000E0F12C20ED210F2A3080F402606F2DB3
S113331070E080E090E040E20E94AB17F62EFE01E0
S1133320E3FC1591E3FE1191EF01ECCF01FF03C023
S1133330F11003C0A7C0FF24FA94183619F01C3604
S113334051F010C0FE01E3FC1591E3FE1191EF0171
S1133350183641F408600460FE01E3FC1591E3FEB5
S11333601191EF01112309F48DC0612F70E08EEFEC
S113337090E00E94551A892B09F484C000FD07C00F
S1133380F50180809180C50102965C0102C0812C08
S1133390912C1E3651F4F6014681578160E070E0AD
S11333A0202FC4010E949F1773CF1336A9F401FD87
S11333B002C0FF24F394C6010E94601A97FD60C006
S11333C08114910429F0F4018083C40101964C0115
S11333D0FA94F110F0CF50C01B3559F49E01A401AA
S11333E06F2DC6010E947D18EC01892B09F044C0A1
S11333F03EC0C6010E94D21797FD42C01F3661F13C
S113340028F4143639F1193651F128C0133771F004
S1133410153701F123C08114910429F0F40160826D
S1133420C40101964C01FA94FF2071F0C6010E9478
S1133430601A3C0197FD08C00E944C1A892B59F36D
S1133440B601C3010E949E1A81149104A9F0F401EB
S1133450108212C0006203C0006101C00064202F0A
S1133460A4016F2DC6010E94EB17811105C0F6015E
S11334708381807329F406C000FD0ACF539408CFDA
S1133480552019F0852D90E002C08FEF9FEFCDB746
S1133490DEB7EFE00C94D91A91110C94B71A80326C
S11334A019F089508550C8F70895FC010590061657
S11334B021F00020D9F7C00108953197CF01089574
S11334C0CF93DF93EC012B8120FF33C026FF0AC08A
S11334D02F7B2B838E819F8101969F838E838A818C
S11334E090E029C022FF0FC0E881F9818081082E75
S11334F0000C990B009719F420622B831AC03196A3
S1133500F983E8830EC0EA85FB85099597FF09C016
S11335102B81019611F080E201C080E1822B8B8324
S113352008C02E813F812F5F3F4F3F832E83992711
S113353002C08FEF9FEFDF91CF910895FB012381AC
S113354020FF12C026FD10C08F3F3FEF930761F0AC
S113355082832F7D20642383268137812150310982
S113356037832683992708958FEF9FEF089599272E
S1133570882708952F923F924F925F926F927F9285
S11335808F929F92AF92BF92CF92DF92EF92FF926F
S11335900F931F93CF93DF93CDB7DEB7CA1BDB0B1B
S11335A00FB6F894DEBF0FBECDBF09942A883988C0
S11335B048885F846E847D848C849B84AA84B984C7
S11335C0C884DF80EE80FD800C811B81AA81B981D3
S11335D0CE0FD11D0FB6F894DEBF0FBECDBFED01E7
S10935E00895F894FFCFEA
S11335E60101FF3F065B4F666D7D077F6F543A000E
S11335F625326868753A253268687500443A0025AC
S11336066868753A256868752F256868752F2534A6
S1133616687500413A0064005300480050002B319D
S1133626002B320030002D31002D320043005700AC
S11336360F0E0D0C0B0A0908070605040302010008
S10F3646010204081020400102040810D6
S9030000FC
